{
  "contractName": "BidManagerRole",
  "abi": [
    {
      "inputs": [],
      "payable": false,
      "stateMutability": "nonpayable",
      "type": "constructor"
    },
    {
      "anonymous": false,
      "inputs": [
        {
          "indexed": false,
          "name": "_address",
          "type": "address"
        }
      ],
      "name": "BidManagerAdded",
      "type": "event"
    },
    {
      "anonymous": false,
      "inputs": [
        {
          "indexed": false,
          "name": "_address",
          "type": "address"
        }
      ],
      "name": "BidManagerRemoved",
      "type": "event"
    },
    {
      "constant": true,
      "inputs": [
        {
          "name": "_address",
          "type": "address"
        }
      ],
      "name": "isBidManager",
      "outputs": [
        {
          "name": "",
          "type": "bool"
        }
      ],
      "payable": false,
      "stateMutability": "view",
      "type": "function"
    },
    {
      "constant": false,
      "inputs": [
        {
          "name": "_address",
          "type": "address"
        }
      ],
      "name": "addBidManager",
      "outputs": [],
      "payable": false,
      "stateMutability": "nonpayable",
      "type": "function"
    },
    {
      "constant": false,
      "inputs": [],
      "name": "renounceBidManager",
      "outputs": [],
      "payable": false,
      "stateMutability": "nonpayable",
      "type": "function"
    }
  ],
  "bytecode": "0x608060405234801561001057600080fd5b506100293361002e640100000000026401000000009004565b610202565b61004f8160006100b5640100000000026103d0179091906401000000009004565b7f0938c55e327027a45d7fd74fc8945c4a5c49ce70ab21c8ffc7c230dab70dcdcc81604051808273ffffffffffffffffffffffffffffffffffffffff1673ffffffffffffffffffffffffffffffffffffffff16815260200191505060405180910390a150565b600073ffffffffffffffffffffffffffffffffffffffff168173ffffffffffffffffffffffffffffffffffffffff1614156100ef57600080fd5b6101088282610170640100000000026401000000009004565b1561011257600080fd5b60018260000160008373ffffffffffffffffffffffffffffffffffffffff1673ffffffffffffffffffffffffffffffffffffffff16815260200190815260200160002060006101000a81548160ff0219169083151502179055505050565b60008073ffffffffffffffffffffffffffffffffffffffff168273ffffffffffffffffffffffffffffffffffffffff1614156101ab57600080fd5b8260000160008373ffffffffffffffffffffffffffffffffffffffff1673ffffffffffffffffffffffffffffffffffffffff16815260200190815260200160002060009054906101000a900460ff16905092915050565b6104dd806102116000396000f3fe608060405234801561001057600080fd5b506004361061005e576000357c010000000000000000000000000000000000000000000000000000000090048063085152ac146100635780637e14efd11461006d578063850aaaeb146100c9575b600080fd5b61006b61010d565b005b6100af6004803603602081101561008357600080fd5b81019080803573ffffffffffffffffffffffffffffffffffffffff169060200190929190505050610118565b604051808215151515815260200191505060405180910390f35b61010b600480360360208110156100df57600080fd5b81019080803573ffffffffffffffffffffffffffffffffffffffff169060200190929190505050610135565b005b6101163361019f565b565b600061012e82600061021990919063ffffffff16565b9050919050565b61013e33610118565b610193576040517f08c379a000000000000000000000000000000000000000000000000000000000815260040180806020018281038252603581526020018061047d6035913960400191505060405180910390fd5b61019c816102ab565b50565b6101b381600061032590919063ffffffff16565b7ff0ec1cff001c67445e02197ef72cf51172e9f9c0b21150529d06894546ff1d5f81604051808273ffffffffffffffffffffffffffffffffffffffff1673ffffffffffffffffffffffffffffffffffffffff16815260200191505060405180910390a150565b60008073ffffffffffffffffffffffffffffffffffffffff168273ffffffffffffffffffffffffffffffffffffffff16141561025457600080fd5b8260000160008373ffffffffffffffffffffffffffffffffffffffff1673ffffffffffffffffffffffffffffffffffffffff16815260200190815260200160002060009054906101000a900460ff16905092915050565b6102bf8160006103d090919063ffffffff16565b7f0938c55e327027a45d7fd74fc8945c4a5c49ce70ab21c8ffc7c230dab70dcdcc81604051808273ffffffffffffffffffffffffffffffffffffffff1673ffffffffffffffffffffffffffffffffffffffff16815260200191505060405180910390a150565b600073ffffffffffffffffffffffffffffffffffffffff168173ffffffffffffffffffffffffffffffffffffffff16141561035f57600080fd5b6103698282610219565b61037257600080fd5b60008260000160008373ffffffffffffffffffffffffffffffffffffffff1673ffffffffffffffffffffffffffffffffffffffff16815260200190815260200160002060006101000a81548160ff0219169083151502179055505050565b600073ffffffffffffffffffffffffffffffffffffffff168173ffffffffffffffffffffffffffffffffffffffff16141561040a57600080fd5b6104148282610219565b1561041e57600080fd5b60018260000160008373ffffffffffffffffffffffffffffffffffffffff1673ffffffffffffffffffffffffffffffffffffffff16815260200190815260200160002060006101000a81548160ff021916908315150217905550505056fe4f6e6c7920426964204d616e6167657220697320616c6c6c6f77656420746f20706572666f726d20746869732066756e6374696f6ea165627a7a72305820decb67933784604fac73c68870b61b51fa47537228512b4e648cfc14313904220029",
  "source": "pragma solidity ^0.5.0;\r\n\r\n// Import the library 'Roles'\r\nimport \"./Roles.sol\";\r\n\r\n// Define a contract 'BidManagerRole' to manage this role - add, remove, check\r\ncontract BidManagerRole {\r\n  using Roles for Roles.Role;\r\n\r\n  // Define 2 events, one for Adding, and other for Removing\r\n  event BidManagerAdded (address _address);\r\n  event BidManagerRemoved (address _address);\r\n  \r\n  // Define a struct 'BidManager' by inheriting from 'Roles' library, struct Role\r\n  Roles.Role private bidManager;\r\n \r\n\r\n  // In the constructor make the address that deploys this contract the 1st BidManager\r\n  constructor() public {\r\n    _addBidManager(msg.sender);\r\n  }\r\n\r\n  // Define a modifier that checks to see if msg.sender has the appropriate role\r\n  modifier onlyBidManager() {\r\n    require(isBidManager(msg.sender), \"Only Bid Manager is alllowed to perform this function\");\r\n    _;\r\n  }\r\n\r\n  // Define a function 'isBidManager' to check this role\r\n  function isBidManager(address _address) public view returns (bool) {\r\n   return bidManager.has(_address);\r\n    \r\n  }\r\n\r\n  // Define a function 'addBidManager' that adds this role\r\n  function addBidManager(address _address) public onlyBidManager {\r\n      _addBidManager(_address);\r\n    \r\n  }\r\n\r\n  // Define a function 'renounceBidManager' to renounce this role\r\n  function renounceBidManager() public {\r\n     _removeBidManager(msg.sender);\r\n  }\r\n\r\n  // Define an internal function '_addBidManager' to add this role, called by 'addBidManager'\r\n  function _addBidManager(address _address) internal {\r\n    bidManager.add(_address);\r\n    emit BidManagerAdded(_address); \r\n  }\r\n\r\n  // Define an internal function '_removeBidManager' to remove this role, called by 'removeBidManager'\r\n  function _removeBidManager(address _address) internal {\r\n    bidManager.remove(_address);\r\n    emit BidManagerRemoved(_address);\r\n    \r\n  }\r\n}",
  "sourcePath": "C:\\Users\\pdheeraj\\Documents\\udacity-blockchain\\Projects\\presales_process\\contracts\\accesscontrol\\BidManagerRole.sol",
  "compiler": {
    "name": "solc",
    "version": "0.5.7+commit.6da8b019.Emscripten.clang"
  },
  "schemaVersion": "3.0.5",
  "updatedAt": "2019-04-22T11:48:40.452Z",
  "devdoc": {
    "methods": {}
  },
  "userdoc": {
    "methods": {}
  }
}