{
  "contractName": "BidProcess",
  "abi": [
    {
      "constant": true,
      "inputs": [
        {
          "name": "",
          "type": "uint256"
        }
      ],
      "name": "proposals",
      "outputs": [
        {
          "name": "name",
          "type": "string"
        },
        {
          "name": "proposalId",
          "type": "uint256"
        },
        {
          "name": "proposalTCV",
          "type": "uint256"
        },
        {
          "name": "state",
          "type": "uint8"
        },
        {
          "name": "proposalContent",
          "type": "string"
        },
        {
          "name": "currentOwner",
          "type": "address"
        },
        {
          "name": "previousOwner",
          "type": "address"
        }
      ],
      "payable": false,
      "stateMutability": "view",
      "type": "function"
    },
    {
      "constant": false,
      "inputs": [],
      "name": "renounceBidManager",
      "outputs": [],
      "payable": false,
      "stateMutability": "nonpayable",
      "type": "function"
    },
    {
      "constant": false,
      "inputs": [],
      "name": "renounceSolutionArchitect",
      "outputs": [],
      "payable": false,
      "stateMutability": "nonpayable",
      "type": "function"
    },
    {
      "constant": true,
      "inputs": [],
      "name": "proposalId",
      "outputs": [
        {
          "name": "",
          "type": "uint256"
        }
      ],
      "payable": false,
      "stateMutability": "view",
      "type": "function"
    },
    {
      "constant": false,
      "inputs": [
        {
          "name": "_address",
          "type": "address"
        }
      ],
      "name": "addSalesLead",
      "outputs": [],
      "payable": false,
      "stateMutability": "nonpayable",
      "type": "function"
    },
    {
      "constant": true,
      "inputs": [
        {
          "name": "_address",
          "type": "address"
        }
      ],
      "name": "isSalesLead",
      "outputs": [
        {
          "name": "",
          "type": "bool"
        }
      ],
      "payable": false,
      "stateMutability": "view",
      "type": "function"
    },
    {
      "constant": false,
      "inputs": [],
      "name": "renounceSalesLead",
      "outputs": [],
      "payable": false,
      "stateMutability": "nonpayable",
      "type": "function"
    },
    {
      "constant": true,
      "inputs": [
        {
          "name": "_address",
          "type": "address"
        }
      ],
      "name": "isBidManager",
      "outputs": [
        {
          "name": "",
          "type": "bool"
        }
      ],
      "payable": false,
      "stateMutability": "view",
      "type": "function"
    },
    {
      "constant": false,
      "inputs": [
        {
          "name": "_address",
          "type": "address"
        }
      ],
      "name": "addBidManager",
      "outputs": [],
      "payable": false,
      "stateMutability": "nonpayable",
      "type": "function"
    },
    {
      "constant": true,
      "inputs": [
        {
          "name": "_address",
          "type": "address"
        }
      ],
      "name": "isSolutionArchitect",
      "outputs": [
        {
          "name": "",
          "type": "bool"
        }
      ],
      "payable": false,
      "stateMutability": "view",
      "type": "function"
    },
    {
      "constant": true,
      "inputs": [
        {
          "name": "_address",
          "type": "address"
        }
      ],
      "name": "isDeliveryLead",
      "outputs": [
        {
          "name": "",
          "type": "bool"
        }
      ],
      "payable": false,
      "stateMutability": "view",
      "type": "function"
    },
    {
      "constant": false,
      "inputs": [
        {
          "name": "_address",
          "type": "address"
        }
      ],
      "name": "addSolutionArchitect",
      "outputs": [],
      "payable": false,
      "stateMutability": "nonpayable",
      "type": "function"
    },
    {
      "constant": false,
      "inputs": [],
      "name": "renounceDeliveryLead",
      "outputs": [],
      "payable": false,
      "stateMutability": "nonpayable",
      "type": "function"
    },
    {
      "constant": false,
      "inputs": [
        {
          "name": "_address",
          "type": "address"
        }
      ],
      "name": "addDeliveryLead",
      "outputs": [],
      "payable": false,
      "stateMutability": "nonpayable",
      "type": "function"
    },
    {
      "inputs": [],
      "payable": false,
      "stateMutability": "nonpayable",
      "type": "constructor"
    },
    {
      "anonymous": false,
      "inputs": [
        {
          "indexed": false,
          "name": "proposalId",
          "type": "uint256"
        }
      ],
      "name": "BidInitiated",
      "type": "event"
    },
    {
      "anonymous": false,
      "inputs": [
        {
          "indexed": false,
          "name": "proposalId",
          "type": "uint256"
        }
      ],
      "name": "BidCreated",
      "type": "event"
    },
    {
      "anonymous": false,
      "inputs": [
        {
          "indexed": false,
          "name": "proposalId",
          "type": "uint256"
        }
      ],
      "name": "BidPopulated",
      "type": "event"
    },
    {
      "anonymous": false,
      "inputs": [
        {
          "indexed": false,
          "name": "proposalId",
          "type": "uint256"
        }
      ],
      "name": "BidReviewed",
      "type": "event"
    },
    {
      "anonymous": false,
      "inputs": [
        {
          "indexed": false,
          "name": "proposalId",
          "type": "uint256"
        }
      ],
      "name": "BidRevised",
      "type": "event"
    },
    {
      "anonymous": false,
      "inputs": [
        {
          "indexed": false,
          "name": "proposalId",
          "type": "uint256"
        }
      ],
      "name": "BidApproved",
      "type": "event"
    },
    {
      "anonymous": false,
      "inputs": [
        {
          "indexed": false,
          "name": "proposalId",
          "type": "uint256"
        }
      ],
      "name": "BidRejected",
      "type": "event"
    },
    {
      "anonymous": false,
      "inputs": [
        {
          "indexed": false,
          "name": "proposalId",
          "type": "uint256"
        }
      ],
      "name": "BidPacked",
      "type": "event"
    },
    {
      "anonymous": false,
      "inputs": [
        {
          "indexed": false,
          "name": "proposalId",
          "type": "uint256"
        }
      ],
      "name": "BidSubmitted",
      "type": "event"
    },
    {
      "anonymous": false,
      "inputs": [
        {
          "indexed": false,
          "name": "_address",
          "type": "address"
        }
      ],
      "name": "SolutionArchitectAdded",
      "type": "event"
    },
    {
      "anonymous": false,
      "inputs": [
        {
          "indexed": false,
          "name": "_address",
          "type": "address"
        }
      ],
      "name": "SolutionArchitectRemoved",
      "type": "event"
    },
    {
      "anonymous": false,
      "inputs": [
        {
          "indexed": false,
          "name": "_address",
          "type": "address"
        }
      ],
      "name": "SalesLeadAdded",
      "type": "event"
    },
    {
      "anonymous": false,
      "inputs": [
        {
          "indexed": false,
          "name": "_address",
          "type": "address"
        }
      ],
      "name": "SalesLeadRemoved",
      "type": "event"
    },
    {
      "anonymous": false,
      "inputs": [
        {
          "indexed": false,
          "name": "_address",
          "type": "address"
        }
      ],
      "name": "DeliveryLeadAdded",
      "type": "event"
    },
    {
      "anonymous": false,
      "inputs": [
        {
          "indexed": false,
          "name": "_address",
          "type": "address"
        }
      ],
      "name": "DeliveryLeadRemoved",
      "type": "event"
    },
    {
      "anonymous": false,
      "inputs": [
        {
          "indexed": false,
          "name": "_address",
          "type": "address"
        }
      ],
      "name": "BidManagerAdded",
      "type": "event"
    },
    {
      "anonymous": false,
      "inputs": [
        {
          "indexed": false,
          "name": "_address",
          "type": "address"
        }
      ],
      "name": "BidManagerRemoved",
      "type": "event"
    },
    {
      "constant": false,
      "inputs": [
        {
          "name": "name",
          "type": "string"
        },
        {
          "name": "totalContractValue",
          "type": "uint256"
        }
      ],
      "name": "initiateBidRequest",
      "outputs": [
        {
          "name": "",
          "type": "uint256"
        }
      ],
      "payable": false,
      "stateMutability": "nonpayable",
      "type": "function"
    },
    {
      "constant": false,
      "inputs": [
        {
          "name": "id",
          "type": "uint256"
        },
        {
          "name": "content",
          "type": "string"
        }
      ],
      "name": "createBid",
      "outputs": [],
      "payable": false,
      "stateMutability": "nonpayable",
      "type": "function"
    },
    {
      "constant": false,
      "inputs": [
        {
          "name": "id",
          "type": "uint256"
        },
        {
          "name": "content",
          "type": "string"
        }
      ],
      "name": "populateProposalResponse",
      "outputs": [],
      "payable": false,
      "stateMutability": "nonpayable",
      "type": "function"
    },
    {
      "constant": false,
      "inputs": [
        {
          "name": "id",
          "type": "uint256"
        },
        {
          "name": "revision",
          "type": "string"
        }
      ],
      "name": "reviewProposal",
      "outputs": [],
      "payable": false,
      "stateMutability": "nonpayable",
      "type": "function"
    },
    {
      "constant": false,
      "inputs": [
        {
          "name": "id",
          "type": "uint256"
        }
      ],
      "name": "provideApproval",
      "outputs": [],
      "payable": false,
      "stateMutability": "nonpayable",
      "type": "function"
    },
    {
      "constant": false,
      "inputs": [
        {
          "name": "id",
          "type": "uint256"
        }
      ],
      "name": "rejectProposal",
      "outputs": [],
      "payable": false,
      "stateMutability": "nonpayable",
      "type": "function"
    },
    {
      "constant": false,
      "inputs": [
        {
          "name": "id",
          "type": "uint256"
        },
        {
          "name": "content",
          "type": "string"
        }
      ],
      "name": "reviseProposal",
      "outputs": [],
      "payable": false,
      "stateMutability": "nonpayable",
      "type": "function"
    },
    {
      "constant": false,
      "inputs": [
        {
          "name": "id",
          "type": "uint256"
        }
      ],
      "name": "packageProposal",
      "outputs": [],
      "payable": false,
      "stateMutability": "nonpayable",
      "type": "function"
    },
    {
      "constant": false,
      "inputs": [
        {
          "name": "id",
          "type": "uint256"
        }
      ],
      "name": "submitProposal",
      "outputs": [],
      "payable": false,
      "stateMutability": "nonpayable",
      "type": "function"
    },
    {
      "constant": true,
      "inputs": [
        {
          "name": "id",
          "type": "uint256"
        }
      ],
      "name": "fetchProposalState",
      "outputs": [
        {
          "name": "state",
          "type": "uint8"
        }
      ],
      "payable": false,
      "stateMutability": "view",
      "type": "function"
    }
  ],
  "bytecode": "0x60806040523480156200001157600080fd5b506200002c33620000c9640100000000026401000000009004565b620000463362000153640100000000026401000000009004565b6200006033620001dd640100000000026401000000009004565b6200007a3362000267640100000000026401000000009004565b33600460006101000a81548173ffffffffffffffffffffffffffffffffffffffff021916908373ffffffffffffffffffffffffffffffffffffffff160217905550600060058190555062000443565b620000ed816000620002f164010000000002620028cb179091906401000000009004565b7f0938c55e327027a45d7fd74fc8945c4a5c49ce70ab21c8ffc7c230dab70dcdcc81604051808273ffffffffffffffffffffffffffffffffffffffff1673ffffffffffffffffffffffffffffffffffffffff16815260200191505060405180910390a150565b62000177816001620002f164010000000002620028cb179091906401000000009004565b7f41d861f82213ee70d2e69a6a0e8d5aa73ef6f122d7765faadf7c8b2f1d12f65581604051808273ffffffffffffffffffffffffffffffffffffffff1673ffffffffffffffffffffffffffffffffffffffff16815260200191505060405180910390a150565b62000201816002620002f164010000000002620028cb179091906401000000009004565b7f583d7ca4108fd91fd82a58d7695ee1fa2d0022b0c47ae8964d9d37df8824fe1281604051808273ffffffffffffffffffffffffffffffffffffffff1673ffffffffffffffffffffffffffffffffffffffff16815260200191505060405180910390a150565b6200028b816003620002f164010000000002620028cb179091906401000000009004565b7f8ff3e958cff5842f159d2c37363ff0f949184cc18641eaea64cb2bd340e60aee81604051808273ffffffffffffffffffffffffffffffffffffffff1673ffffffffffffffffffffffffffffffffffffffff16815260200191505060405180910390a150565b600073ffffffffffffffffffffffffffffffffffffffff168173ffffffffffffffffffffffffffffffffffffffff1614156200032c57600080fd5b620003478282620003b0640100000000026401000000009004565b156200035257600080fd5b60018260000160008373ffffffffffffffffffffffffffffffffffffffff1673ffffffffffffffffffffffffffffffffffffffff16815260200190815260200160002060006101000a81548160ff0219169083151502179055505050565b60008073ffffffffffffffffffffffffffffffffffffffff168273ffffffffffffffffffffffffffffffffffffffff161415620003ec57600080fd5b8260000160008373ffffffffffffffffffffffffffffffffffffffff1673ffffffffffffffffffffffffffffffffffffffff16815260200190815260200160002060009054906101000a900460ff16905092915050565b612b2480620004536000396000f3fe608060405234801561001057600080fd5b5060043610610175576000357c0100000000000000000000000000000000000000000000000000000000900480637e14efd1116100e0578063b417d2da11610099578063b417d2da146108dc578063bbd000e214610938578063bc28d8781461097c578063e88d70ae146109aa578063eec854c914610a83578063f0d82b8514610a8d57610175565b80637e14efd1146106065780638043bc2b14610662578063816fd6b014610727578063850aaaeb146107ec5780638fc42ba814610830578063a5840ba01461088057610175565b806332635cdb1161013257806332635cdb146104515780633fd3f51e146104ad5780634a1a9b21146104db57806355be0423146105095780637013759314610513578063736d95aa146105d857610175565b8063013cf08b1461017a578063085152ac1461031657806311de7892146103205780631d747284146103e55780632dfca445146103ef57806331d3d56c1461040d575b600080fd5b6101a66004803603602081101561019057600080fd5b8101908080359060200190929190505050610ad1565b60405180806020018881526020018781526020018660088111156101c657fe5b60ff168152602001806020018573ffffffffffffffffffffffffffffffffffffffff1673ffffffffffffffffffffffffffffffffffffffff1681526020018473ffffffffffffffffffffffffffffffffffffffff1673ffffffffffffffffffffffffffffffffffffffff16815260200183810383528a818151815260200191508051906020019080838360005b8381101561026e578082015181840152602081019050610253565b50505050905090810190601f16801561029b5780820380516001836020036101000a031916815260200191505b50838103825286818151815260200191508051906020019080838360005b838110156102d45780820151818401526020810190506102b9565b50505050905090810190601f1680156103015780820380516001836020036101000a031916815260200191505b50995050505050505050505060405180910390f35b61031e610c90565b005b6103e36004803603604081101561033657600080fd5b81019080803590602001909291908035906020019064010000000081111561035d57600080fd5b82018360208201111561036f57600080fd5b8035906020019184600183028401116401000000008311171561039157600080fd5b91908080601f016020809104026020016040519081016040528093929190818152602001838380828437600081840152601f19601f820116905080830192505050505050509192919290505050610c9b565b005b6103ed610f28565b005b6103f7610f33565b6040518082815260200191505060405180910390f35b61044f6004803603602081101561042357600080fd5b81019080803573ffffffffffffffffffffffffffffffffffffffff169060200190929190505050610f39565b005b6104936004803603602081101561046757600080fd5b81019080803573ffffffffffffffffffffffffffffffffffffffff169060200190929190505050610fa3565b604051808215151515815260200191505060405180910390f35b6104d9600480360360208110156104c357600080fd5b8101908080359060200190929190505050610fc0565b005b610507600480360360208110156104f157600080fd5b810190808035906020019092919050505061116f565b005b6105116113d0565b005b6105d66004803603604081101561052957600080fd5b81019080803590602001909291908035906020019064010000000081111561055057600080fd5b82018360208201111561056257600080fd5b8035906020019184600183028401116401000000008311171561058457600080fd5b91908080601f016020809104026020016040519081016040528093929190818152602001838380828437600081840152601f19601f8201169050808301925050505050505091929192905050506113db565b005b610604600480360360208110156105ee57600080fd5b8101908080359060200190929190505050611668565b005b6106486004803603602081101561061c57600080fd5b81019080803573ffffffffffffffffffffffffffffffffffffffff1690602001909291905050506118c9565b604051808215151515815260200191505060405180910390f35b6107256004803603604081101561067857600080fd5b81019080803590602001909291908035906020019064010000000081111561069f57600080fd5b8201836020820111156106b157600080fd5b803590602001918460018302840111640100000000831117156106d357600080fd5b91908080601f016020809104026020016040519081016040528093929190818152602001838380828437600081840152601f19601f8201169050808301925050505050505091929192905050506118e6565b005b6107ea6004803603604081101561073d57600080fd5b81019080803590602001909291908035906020019064010000000081111561076457600080fd5b82018360208201111561077657600080fd5b8035906020019184600183028401116401000000008311171561079857600080fd5b91908080601f016020809104026020016040519081016040528093929190818152602001838380828437600081840152601f19601f820116905080830192505050505050509192919290505050611b73565b005b61082e6004803603602081101561080257600080fd5b81019080803573ffffffffffffffffffffffffffffffffffffffff169060200190929190505050611e00565b005b61085c6004803603602081101561084657600080fd5b8101908080359060200190929190505050611e6a565b6040518082600881111561086c57fe5b60ff16815260200191505060405180910390f35b6108c26004803603602081101561089657600080fd5b81019080803573ffffffffffffffffffffffffffffffffffffffff169060200190929190505050611e9a565b604051808215151515815260200191505060405180910390f35b61091e600480360360208110156108f257600080fd5b81019080803573ffffffffffffffffffffffffffffffffffffffff169060200190929190505050611eb7565b604051808215151515815260200191505060405180910390f35b61097a6004803603602081101561094e57600080fd5b81019080803573ffffffffffffffffffffffffffffffffffffffff169060200190929190505050611ed4565b005b6109a86004803603602081101561099257600080fd5b8101908080359060200190929190505050611f3e565b005b610a6d600480360360408110156109c057600080fd5b81019080803590602001906401000000008111156109dd57600080fd5b8201836020820111156109ef57600080fd5b80359060200191846001830284011164010000000083111715610a1157600080fd5b91908080601f016020809104026020016040519081016040528093929190818152602001838380828437600081840152601f19601f8201169050808301925050505050505091929192908035906020019092919050505061219f565b6040518082815260200191505060405180910390f35b610a8b612349565b005b610acf60048036036020811015610aa357600080fd5b81019080803573ffffffffffffffffffffffffffffffffffffffff169060200190929190505050612354565b005b6006602052806000526040600020600091509050806000018054600181600116156101000203166002900480601f016020809104026020016040519081016040528092919081815260200182805460018160011615610100020316600290048015610b7d5780601f10610b5257610100808354040283529160200191610b7d565b820191906000526020600020905b815481529060010190602001808311610b6057829003601f168201915b5050505050908060010154908060020154908060030160009054906101000a900460ff1690806004018054600181600116156101000203166002900480601f016020809104026020016040519081016040528092919081815260200182805460018160011615610100020316600290048015610c3a5780601f10610c0f57610100808354040283529160200191610c3a565b820191906000526020600020905b815481529060010190602001808311610c1d57829003601f168201915b5050505050908060050160009054906101000a900473ffffffffffffffffffffffffffffffffffffffff16908060060160009054906101000a900473ffffffffffffffffffffffffffffffffffffffff16905087565b610c99336123be565b565b610ca433611eb7565b610cf9576040517f08c379a0000000000000000000000000000000000000000000000000000000008152600401808060200182810382526037815260200180612ac26037913960400191505060405180910390fd5b8160026008811115610d0757fe5b6006600083815260200190815260200160002060030160009054906101000a900460ff166008811115610d3657fe5b14610da9576040517f08c379a000000000000000000000000000000000000000000000000000000000815260040180806020018281038252601d8152602001807f50726f706f73616c206973206e6f7420706f70756c617465642079657400000081525060200191505060405180910390fd5b6006600084815260200190815260200160002060050160009054906101000a900473ffffffffffffffffffffffffffffffffffffffff166006600085815260200190815260200160002060060160006101000a81548173ffffffffffffffffffffffffffffffffffffffff021916908373ffffffffffffffffffffffffffffffffffffffff160217905550336006600085815260200190815260200160002060050160006101000a81548173ffffffffffffffffffffffffffffffffffffffff021916908373ffffffffffffffffffffffffffffffffffffffff16021790555060036006600085815260200190815260200160002060030160006101000a81548160ff02191690836008811115610ebc57fe5b021790555081600660008581526020019081526020016000206004019080519060200190610eeb929190612977565b507fff91b808c2c8cf6e45fe95e499861ec3a9d86878155d40bd462c08e159c85931836040518082815260200191505060405180910390a1505050565b610f3133612438565b565b60055481565b610f4233610fa3565b610f97576040517f08c379a0000000000000000000000000000000000000000000000000000000008152600401808060200182810382526034815260200180612a8e6034913960400191505060405180910390fd5b610fa0816124b2565b50565b6000610fb982600261252c90919063ffffffff16565b9050919050565b610fc933611eb7565b61101e576040517f08c379a0000000000000000000000000000000000000000000000000000000008152600401808060200182810382526037815260200180612ac26037913960400191505060405180910390fd5b6006600082815260200190815260200160002060050160009054906101000a900473ffffffffffffffffffffffffffffffffffffffff166006600083815260200190815260200160002060060160006101000a81548173ffffffffffffffffffffffffffffffffffffffff021916908373ffffffffffffffffffffffffffffffffffffffff160217905550336006600083815260200190815260200160002060050160006101000a81548173ffffffffffffffffffffffffffffffffffffffff021916908373ffffffffffffffffffffffffffffffffffffffff160217905550600680600083815260200190815260200160002060030160006101000a81548160ff0219169083600881111561113057fe5b02179055507f0db83de56a6f90d6de835235e606cea44ab3aa8cad49bfe3ed36f8e86d18c826816040518082815260200191505060405180910390a150565b611178336118c9565b6111cd576040517f08c379a0000000000000000000000000000000000000000000000000000000008152600401808060200182810382526035815260200180612a1d6035913960400191505060405180910390fd5b80600660088111156111db57fe5b6006600083815260200190815260200160002060030160009054906101000a900460ff16600881111561120a57fe5b1461127d576040517f08c379a000000000000000000000000000000000000000000000000000000000815260040180806020018281038252601c8152602001807f50726f706f73616c206973206e6f7420417070726f766564207965740000000081525060200191505060405180910390fd5b6006600083815260200190815260200160002060050160009054906101000a900473ffffffffffffffffffffffffffffffffffffffff166006600084815260200190815260200160002060060160006101000a81548173ffffffffffffffffffffffffffffffffffffffff021916908373ffffffffffffffffffffffffffffffffffffffff160217905550336006600084815260200190815260200160002060050160006101000a81548173ffffffffffffffffffffffffffffffffffffffff021916908373ffffffffffffffffffffffffffffffffffffffff16021790555060076006600084815260200190815260200160002060030160006101000a81548160ff0219169083600881111561139057fe5b02179055507f3469684642a6c738a0cdb3bfb0d2e8ed88254545bce63ea2d72ee2d45f2e7728826040518082815260200191505060405180910390a15050565b6113d9336125be565b565b6113e4336118c9565b611439576040517f08c379a0000000000000000000000000000000000000000000000000000000008152600401808060200182810382526035815260200180612a1d6035913960400191505060405180910390fd5b816000600881111561144757fe5b6006600083815260200190815260200160002060030160009054906101000a900460ff16600881111561147657fe5b146114e9576040517f08c379a000000000000000000000000000000000000000000000000000000000815260040180806020018281038252601d8152602001807f50726f706f73616c206973206e6f7420696e697469617465642079657400000081525060200191505060405180910390fd5b6006600084815260200190815260200160002060050160009054906101000a900473ffffffffffffffffffffffffffffffffffffffff166006600085815260200190815260200160002060060160006101000a81548173ffffffffffffffffffffffffffffffffffffffff021916908373ffffffffffffffffffffffffffffffffffffffff160217905550336006600085815260200190815260200160002060050160006101000a81548173ffffffffffffffffffffffffffffffffffffffff021916908373ffffffffffffffffffffffffffffffffffffffff16021790555060016006600085815260200190815260200160002060030160006101000a81548160ff021916908360088111156115fc57fe5b02179055508160066000858152602001908152602001600020600401908051906020019061162b929190612977565b507f27b098c409bbc0189b7f0634fb1ea297c3d7fbc0591c8766af02bbcfd4890f3b836040518082815260200191505060405180910390a1505050565b61167133610fa3565b6116c6576040517f08c379a0000000000000000000000000000000000000000000000000000000008152600401808060200182810382526034815260200180612a8e6034913960400191505060405180910390fd5b80600760088111156116d457fe5b6006600083815260200190815260200160002060030160009054906101000a900460ff16600881111561170357fe5b14611776576040517f08c379a000000000000000000000000000000000000000000000000000000000815260040180806020018281038252601c8152602001807f50726f706f73616c206973206e6f74207061636b61676564207965740000000081525060200191505060405180910390fd5b6006600083815260200190815260200160002060050160009054906101000a900473ffffffffffffffffffffffffffffffffffffffff166006600084815260200190815260200160002060060160006101000a81548173ffffffffffffffffffffffffffffffffffffffff021916908373ffffffffffffffffffffffffffffffffffffffff160217905550336006600084815260200190815260200160002060050160006101000a81548173ffffffffffffffffffffffffffffffffffffffff021916908373ffffffffffffffffffffffffffffffffffffffff16021790555060076006600084815260200190815260200160002060030160006101000a81548160ff0219169083600881111561188957fe5b02179055507f358563bd515c85604de1143ccbc83efbe0890167e41d1680e551374035924c0d826040518082815260200191505060405180910390a15050565b60006118df82600061252c90919063ffffffff16565b9050919050565b6118ef33611e9a565b611944576040517f08c379a000000000000000000000000000000000000000000000000000000000815260040180806020018281038252603c815260200180612a52603c913960400191505060405180910390fd5b816001600881111561195257fe5b6006600083815260200190815260200160002060030160009054906101000a900460ff16600881111561198157fe5b146119f4576040517f08c379a000000000000000000000000000000000000000000000000000000000815260040180806020018281038252601b8152602001807f50726f706f73616c206973206e6f74206372656174656420796574000000000081525060200191505060405180910390fd5b6006600084815260200190815260200160002060050160009054906101000a900473ffffffffffffffffffffffffffffffffffffffff166006600085815260200190815260200160002060060160006101000a81548173ffffffffffffffffffffffffffffffffffffffff021916908373ffffffffffffffffffffffffffffffffffffffff160217905550336006600085815260200190815260200160002060050160006101000a81548173ffffffffffffffffffffffffffffffffffffffff021916908373ffffffffffffffffffffffffffffffffffffffff16021790555060026006600085815260200190815260200160002060030160006101000a81548160ff02191690836008811115611b0757fe5b021790555081600660008581526020019081526020016000206004019080519060200190611b36929190612977565b507fbcbfe92e8ecabe1f7441942cdcd80fc5895acd85790db301fd3734a79ba2eb9d836040518082815260200191505060405180910390a1505050565b611b7c33611e9a565b611bd1576040517f08c379a000000000000000000000000000000000000000000000000000000000815260040180806020018281038252603c815260200180612a52603c913960400191505060405180910390fd5b8160056008811115611bdf57fe5b6006600083815260200190815260200160002060030160009054906101000a900460ff166008811115611c0e57fe5b14611c81576040517f08c379a000000000000000000000000000000000000000000000000000000000815260040180806020018281038252601c8152602001807f50726f706f73616c206973206e6f742052656a6563746564207965740000000081525060200191505060405180910390fd5b6006600084815260200190815260200160002060050160009054906101000a900473ffffffffffffffffffffffffffffffffffffffff166006600085815260200190815260200160002060060160006101000a81548173ffffffffffffffffffffffffffffffffffffffff021916908373ffffffffffffffffffffffffffffffffffffffff160217905550336006600085815260200190815260200160002060050160006101000a81548173ffffffffffffffffffffffffffffffffffffffff021916908373ffffffffffffffffffffffffffffffffffffffff16021790555060026006600085815260200190815260200160002060030160006101000a81548160ff02191690836008811115611d9457fe5b021790555081600660008581526020019081526020016000206004019080519060200190611dc3929190612977565b507fcaa3137d71de4f6ee0387fbdc34bf8adf809f78f0428f13e30b1485c0cb040b8836040518082815260200191505060405180910390a1505050565b611e09336118c9565b611e5e576040517f08c379a0000000000000000000000000000000000000000000000000000000008152600401808060200182810382526035815260200180612a1d6035913960400191505060405180910390fd5b611e6781612638565b50565b60006006600083815260200190815260200160002060030160009054906101000a900460ff169050809050919050565b6000611eb082600361252c90919063ffffffff16565b9050919050565b6000611ecd82600161252c90919063ffffffff16565b9050919050565b611edd33611e9a565b611f32576040517f08c379a000000000000000000000000000000000000000000000000000000000815260040180806020018281038252603c815260200180612a52603c913960400191505060405180910390fd5b611f3b816126b2565b50565b611f4733611eb7565b611f9c576040517f08c379a0000000000000000000000000000000000000000000000000000000008152600401808060200182810382526037815260200180612ac26037913960400191505060405180910390fd5b8060036008811115611faa57fe5b6006600083815260200190815260200160002060030160009054906101000a900460ff166008811115611fd957fe5b1461204c576040517f08c379a000000000000000000000000000000000000000000000000000000000815260040180806020018281038252601c8152602001807f50726f706f73616c206973206e6f74205265766965776564207965740000000081525060200191505060405180910390fd5b6006600083815260200190815260200160002060050160009054906101000a900473ffffffffffffffffffffffffffffffffffffffff166006600084815260200190815260200160002060060160006101000a81548173ffffffffffffffffffffffffffffffffffffffff021916908373ffffffffffffffffffffffffffffffffffffffff160217905550336006600084815260200190815260200160002060050160006101000a81548173ffffffffffffffffffffffffffffffffffffffff021916908373ffffffffffffffffffffffffffffffffffffffff16021790555060056006600084815260200190815260200160002060030160006101000a81548160ff0219169083600881111561215f57fe5b02179055507f3f3880a3434edc55799b6fa2eb84de9f6b4364947a45ded791bac94deae3c0a1826040518082815260200191505060405180910390a15050565b60006121aa33610fa3565b6121ff576040517f08c379a0000000000000000000000000000000000000000000000000000000008152600401808060200182810382526034815260200180612a8e6034913960400191505060405180910390fd5b60016005540160058190555060055460066000600554815260200190815260200160002060010181905550826006600060055481526020019081526020016000206000019080519060200190612256929190612977565b508160066000600554815260200190815260200160002060020181905550600060066000600554815260200190815260200160002060030160006101000a81548160ff021916908360088111156122a957fe5b02179055503360066000600554815260200190815260200160002060050160006101000a81548173ffffffffffffffffffffffffffffffffffffffff021916908373ffffffffffffffffffffffffffffffffffffffff1602179055507fa9ddf974ff0d98a83b7b2b8d474934787c57a98490708b782be36c082f25cdc86005546040518082815260200191505060405180910390a1600554905092915050565b6123523361272c565b565b61235d33611eb7565b6123b2576040517f08c379a0000000000000000000000000000000000000000000000000000000008152600401808060200182810382526037815260200180612ac26037913960400191505060405180910390fd5b6123bb816127a6565b50565b6123d281600061282090919063ffffffff16565b7ff0ec1cff001c67445e02197ef72cf51172e9f9c0b21150529d06894546ff1d5f81604051808273ffffffffffffffffffffffffffffffffffffffff1673ffffffffffffffffffffffffffffffffffffffff16815260200191505060405180910390a150565b61244c81600361282090919063ffffffff16565b7fc21c3791f9cd2c63c930399a7621bbab899a3f59529183027e61b6d363048f3e81604051808273ffffffffffffffffffffffffffffffffffffffff1673ffffffffffffffffffffffffffffffffffffffff16815260200191505060405180910390a150565b6124c68160026128cb90919063ffffffff16565b7f583d7ca4108fd91fd82a58d7695ee1fa2d0022b0c47ae8964d9d37df8824fe1281604051808273ffffffffffffffffffffffffffffffffffffffff1673ffffffffffffffffffffffffffffffffffffffff16815260200191505060405180910390a150565b60008073ffffffffffffffffffffffffffffffffffffffff168273ffffffffffffffffffffffffffffffffffffffff16141561256757600080fd5b8260000160008373ffffffffffffffffffffffffffffffffffffffff1673ffffffffffffffffffffffffffffffffffffffff16815260200190815260200160002060009054906101000a900460ff16905092915050565b6125d281600261282090919063ffffffff16565b7f032071e0f19d5276bc2b10646f03300e5060d865f443040409e73f16f3b4759481604051808273ffffffffffffffffffffffffffffffffffffffff1673ffffffffffffffffffffffffffffffffffffffff16815260200191505060405180910390a150565b61264c8160006128cb90919063ffffffff16565b7f0938c55e327027a45d7fd74fc8945c4a5c49ce70ab21c8ffc7c230dab70dcdcc81604051808273ffffffffffffffffffffffffffffffffffffffff1673ffffffffffffffffffffffffffffffffffffffff16815260200191505060405180910390a150565b6126c68160036128cb90919063ffffffff16565b7f8ff3e958cff5842f159d2c37363ff0f949184cc18641eaea64cb2bd340e60aee81604051808273ffffffffffffffffffffffffffffffffffffffff1673ffffffffffffffffffffffffffffffffffffffff16815260200191505060405180910390a150565b61274081600161282090919063ffffffff16565b7f7a7aaec75983becaee21d56aa81ffbe1d3a027abd299000131dae79cff17d3f581604051808273ffffffffffffffffffffffffffffffffffffffff1673ffffffffffffffffffffffffffffffffffffffff16815260200191505060405180910390a150565b6127ba8160016128cb90919063ffffffff16565b7f41d861f82213ee70d2e69a6a0e8d5aa73ef6f122d7765faadf7c8b2f1d12f65581604051808273ffffffffffffffffffffffffffffffffffffffff1673ffffffffffffffffffffffffffffffffffffffff16815260200191505060405180910390a150565b600073ffffffffffffffffffffffffffffffffffffffff168173ffffffffffffffffffffffffffffffffffffffff16141561285a57600080fd5b612864828261252c565b61286d57600080fd5b60008260000160008373ffffffffffffffffffffffffffffffffffffffff1673ffffffffffffffffffffffffffffffffffffffff16815260200190815260200160002060006101000a81548160ff0219169083151502179055505050565b600073ffffffffffffffffffffffffffffffffffffffff168173ffffffffffffffffffffffffffffffffffffffff16141561290557600080fd5b61290f828261252c565b1561291957600080fd5b60018260000160008373ffffffffffffffffffffffffffffffffffffffff1673ffffffffffffffffffffffffffffffffffffffff16815260200190815260200160002060006101000a81548160ff0219169083151502179055505050565b828054600181600116156101000203166002900490600052602060002090601f016020900481019282601f106129b857805160ff19168380011785556129e6565b828001600101855582156129e6579182015b828111156129e55782518255916020019190600101906129ca565b5b5090506129f391906129f7565b5090565b612a1991905b80821115612a155760008160009055506001016129fd565b5090565b9056fe4f6e6c7920426964204d616e6167657220697320616c6c6c6f77656420746f20706572666f726d20746869732066756e6374696f6e4f6e6c7920536f6c7574696f6e2041726368697465637420697320616c6c6c6f77656420746f20706572666f726d20746869732066756e6374696f6e4f6e6c792053616c6573204c65616420697320616c6c6c6f77656420746f20706572666f726d20746869732066756e6374696f6e4f6e6c792044656c6976657279204c65616420697320616c6c6c6f77656420746f20706572666f726d20746869732066756e6374696f6ea165627a7a723058207ec6735fea9cc6a68d949f4791e7f6414ffaf7901457746282825203105daabf0029",
  "source": "pragma solidity ^0.5.0;\r\n\r\nimport \"../accesscontrol/BidManagerRole.sol\";\r\nimport \"../accesscontrol/DeliveryLeadRole.sol\";\r\nimport \"../accesscontrol/SalesLeadRole.sol\";\r\nimport \"../accesscontrol/SolutionArchitectRole.sol\";\r\n\r\n\r\ncontract BidProcess is \r\nBidManagerRole,\r\nDeliveryLeadRole,\r\nSalesLeadRole,\r\nSolutionArchitectRole \r\n{\r\n\r\n\t //variable: 'Owner'\r\n    address proposalOwner;\r\n    \r\n    //varibale: define a variable uint for proposalID\r\n    uint256 public proposalId;\r\n\r\n\t//various state in which a proposal can be\r\n    enum  proposalState  {Initiated, Created, Populated, Reviewed, Revision, Rejected, Approved, Packed, Submitted}\r\n\t\t\t\t\t\t//0\t\t\t1\t\t 2\t\t\t3\t\t\t4\t\t5\t\t 6\t\t  7\t\t\t8\r\n\r\n\r\n    //struct: 'Proposal' with the following fields: name, sku, price, state, seller, buyer\r\n    struct Proposal{\r\n        string name;\r\n        uint proposalId;\r\n        uint proposalTCV;\r\n        proposalState state;\r\n\t\tstring proposalContent;\r\n        address currentOwner;\r\n\t\taddress previousOwner;\r\n    }\r\n\r\n    // Define mapping 'proposals' that maps the proposalid (a number) to a proposal.\r\n    mapping (uint => Proposal)  public proposals;\r\n\r\n    \t\r\n\t//EVENTS\r\n    event BidInitiated(uint proposalId);\r\n    event BidCreated(uint proposalId);\r\n\tevent BidPopulated(uint proposalId);\r\n\tevent BidReviewed(uint proposalId);\r\n\tevent BidRevised(uint proposalId);\r\n\tevent BidApproved(uint proposalId);\r\n\tevent BidRejected(uint proposalId);\r\n\tevent BidPacked(uint proposalId);\r\n\tevent BidSubmitted(uint proposalId);\r\n\r\n\r\n\r\n    //Modifier: Only Owner to see if the msg.sender == owner of the contract\r\n    modifier onlyOwner(){\r\n\t\t require(msg.sender == proposalOwner);\r\n\t\t _;\r\n\t}\r\n\r\n\tmodifier verifyCaller (address _address) {\r\n        require(msg.sender == _address, \"Caller not allowed to execute this function\");\r\n        _;\r\n    }\r\n\r\n\tmodifier isInititated (uint id) {\r\n\t\trequire(proposals[id].state == proposalState.Initiated, \"Proposal is not initiated yet\");\r\n\t\t_;\r\n\t}\r\n\r\n\tmodifier isCreated (uint id) {\r\n\t\trequire(proposals[id].state == proposalState.Created, \"Proposal is not created yet\");\r\n\t\t_;\r\n\t}\r\n\r\n\tmodifier isPopulated (uint id) {\r\n\t\trequire(proposals[id].state == proposalState.Populated, \"Proposal is not populated yet\");\r\n\t\t_;\r\n\t}\r\n\r\n\tmodifier isReviewed (uint id) {\r\n\t\trequire(proposals[id].state == proposalState.Reviewed, \"Proposal is not Reviewed yet\");\r\n\t\t_;\r\n\t}\r\n\r\n\tmodifier isReviewedorRevised (uint id) {\r\n\t\tbool result = (proposals[id].state == proposalState.Reviewed) || (proposals[id].state == proposalState.Revision) ;\r\n\t\trequire(result, \"Proposal is not Reviewed or Revised yet\");\r\n\t\t_;\r\n\t}\r\n\r\n\tmodifier isApproved (uint id) {\r\n\t\trequire(proposals[id].state == proposalState.Approved, \"Proposal is not Approved yet\");\r\n\t\t_;\r\n\t}\r\n\r\n\tmodifier isRejected (uint id) {\r\n\t\trequire(proposals[id].state == proposalState.Rejected, \"Proposal is not Rejected yet\");\r\n\t\t_;\r\n\t}\r\n\r\n\tmodifier isRevised (uint id) {\r\n\t\trequire(proposals[id].state == proposalState.Revision, \"Proposal is not Revised yet\");\r\n\t\t_;\r\n\t}\r\n\r\n\tmodifier isPacked (uint id) {\r\n\t\trequire(proposals[id].state == proposalState.Packed, \"Proposal is not packaged yet\");\r\n\t\t_;\r\n\t}\r\n\r\n\tmodifier isSubmitted (uint id) {\r\n\t\trequire(proposals[id].state == proposalState.Submitted, \"Proposal is not ready for Submission.\");\r\n\t\t_;\r\n\t}\r\n\t\r\n\t\r\n\t//CONSTRUCTOR\r\n\tconstructor() public{\r\n\t\tproposalOwner = msg.sender;\r\n\t\tproposalId = 0 ;   //set the proposal id to be 0.\r\n\t}\r\n\t\r\n\r\n\t// Sales Lead Initiates \r\n\tfunction initiateBidRequest(string memory name, uint totalContractValue) public onlySalesLead returns (uint) {\r\n\t\tproposalId = proposalId + 1; \t\t\t\t\t // Create a new proposal id. GP is to use safemath\r\n\t\tproposals[proposalId].proposalId = proposalId ;\t // set the proposal id for the new proposal\r\n\t\tproposals[proposalId].name = name ;\t\t//Set the name\r\n\t\tproposals[proposalId].proposalTCV = totalContractValue ; //set the TCV\r\n\t\tproposals[proposalId].state =  proposalState.Initiated;\t\t\t\t// O is the initiated state\r\n        proposals[proposalId].currentOwner = msg.sender ;\r\n\t\temit BidInitiated(proposalId) ;\r\n\t\treturn proposalId;\r\n\t}\r\n\r\n\t// Bid manager creates a bid request and proposal content\r\n\tfunction createBid(uint  id, string  memory content) public onlyBidManager isInititated(id) {\r\n\t\tproposals[id].previousOwner = proposals[id].currentOwner; //make current owner (Sales Lead) the previous owner\r\n\t\tproposals[id].currentOwner = msg.sender ;\t\t// make the sender the bid manager\r\n\t\tproposals[id].state =  proposalState.Created;\t\t\t\t// O is the initiated state\r\n\t\tproposals[id].proposalContent =  content;\t\t\t//create content\r\n\t\temit BidCreated(id) ;\r\n\t}\r\n\r\n\r\n\t//Solution Arcchitect populates the proposal response\r\n\tfunction populateProposalResponse(uint  id, string memory content) public onlySolutionArchitect isCreated(id){\r\n\t\tproposals[id].previousOwner = proposals[id].currentOwner ;//make current owner (Bid Manager) the previous owner\r\n\t\tproposals[id].currentOwner = msg.sender ;\t\t// make the sender the proposal owner\r\n\t\tproposals[id].state =  proposalState.Populated;\t\t\t\t// O is the initiated state\r\n\t\tproposals[id].proposalContent =  content;\t\r\n\t\temit BidPopulated(id) ;\r\n\t}\r\n\r\n\r\n\t//Delivery Lead Review Proposal\r\n\tfunction reviewProposal(uint  id, string memory revision) public onlyDeliveryLead isPopulated(id){\r\n\t\tproposals[id].previousOwner = proposals[id].currentOwner ;//make current owner (Bid Manager) the previous owner\r\n\t\tproposals[id].currentOwner = msg.sender ;\t\t// make the sender the proposal owner\r\n\t\tproposals[id].state =  proposalState.Reviewed;\t\t\t\t// O is the initiated state\r\n\t\tproposals[id].proposalContent =  revision;\t\r\n\t\temit BidReviewed(id) ;\r\n\t}\r\n\r\n\t//Delivery Lead provides the approval\r\n\tfunction provideApproval(uint  id) public onlyDeliveryLead //isReviewedorRevised(id)\r\n\t{\r\n\t\tproposals[id].previousOwner = proposals[id].currentOwner ;//make current owner (Bid Manager) the previous owner\r\n\t\tproposals[id].currentOwner = msg.sender ;\t\t// make the sender the proposal owner\r\n\t\tproposals[id].state =  proposalState.Approved;\t\t\t\t// O is the initiated state\r\n\t\temit BidApproved(id) ;\r\n\t}\r\n\r\n\t//Delivery Lead Reject the proposal\r\n\tfunction rejectProposal(uint  id) public onlyDeliveryLead isReviewed(id){\r\n\t\tproposals[id].previousOwner = proposals[id].currentOwner ;//make current owner (Bid Manager) the previous owner\r\n\t\tproposals[id].currentOwner = msg.sender ;\t\t// make the sender the proposal owner\r\n\t\tproposals[id].state =  proposalState.Rejected;\t\t\t\t// O is the initiated state\r\n\t\temit BidRejected(id) ;\r\n\t}\r\n\r\n\t//Solution Architect Revise the proposal\r\n\tfunction reviseProposal(uint  id, string memory content) public onlySolutionArchitect isRejected(id){\r\n\t\tproposals[id].previousOwner = proposals[id].currentOwner; //make current owner (Bid Manager) the previous owner\r\n\t\tproposals[id].currentOwner = msg.sender ;\t\t// make the sender the proposal owner\r\n\t\tproposals[id].state =  proposalState.Populated;\t\t   // Change the status as populated to follow the workflow\r\n\t\tproposals[id].proposalContent = content;\r\n\t\temit BidRevised(id) ;\r\n\t}\r\n\r\n\r\n\t//Bid manager packages the proposal\r\n\tfunction packageProposal(uint  id) public onlyBidManager isApproved(id){\r\n\t\tproposals[id].previousOwner = proposals[id].currentOwner ;//make current owner (Bid Manager) the previous owner\r\n\t\tproposals[id].currentOwner = msg.sender ;\t\t// make the sender the proposal owner\r\n\t\tproposals[id].state =  proposalState.Packed;\t\t   // Change the status as populated to follow the workflow\r\n\t\temit BidPacked(id) ;\r\n\t}\r\n\r\n\t//Sales lead submit the proposal\r\n\tfunction submitProposal(uint  id) public onlySalesLead isPacked(id){\r\n\t\tproposals[id].previousOwner = proposals[id].currentOwner; //make current owner (Bid Manager) the previous owner\r\n\t\tproposals[id].currentOwner = msg.sender ;\t\t// make the sender the proposal owner\r\n\t\tproposals[id].state =  proposalState.Packed;\t\t   // Change the status as populated to follow the workflow\r\n\t\temit BidSubmitted(id) ;\r\n\t}\r\n\r\n\r\n\r\n\t/// UTILITY FUNCTIONS\r\n\r\n\tfunction fetchProposalState(uint  id) public view returns (proposalState state){\r\n\t\tstate = proposals[id].state;\r\n\t\treturn state;\r\n\t}\r\n\r\n}",
  "sourcePath": "C:\\Users\\pdheeraj\\Documents\\udacity-blockchain\\Projects\\presales_process\\contracts\\base\\BidProcess.sol",
  "compiler": {
    "name": "solc",
    "version": "0.5.7+commit.6da8b019.Emscripten.clang"
  },
  "schemaVersion": "3.0.5",
  "updatedAt": "2019-04-22T11:48:40.470Z",
  "devdoc": {
    "methods": {}
  },
  "userdoc": {
    "methods": {
      "fetchProposalState(uint256)": {
        "notice": "UTILITY FUNCTIONS"
      }
    }
  }
}