{
  "contractName": "DeliveryLeadRole",
  "abi": [
    {
      "inputs": [],
      "payable": false,
      "stateMutability": "nonpayable",
      "type": "constructor"
    },
    {
      "anonymous": false,
      "inputs": [
        {
          "indexed": false,
          "name": "_address",
          "type": "address"
        }
      ],
      "name": "DeliveryLeadAdded",
      "type": "event"
    },
    {
      "anonymous": false,
      "inputs": [
        {
          "indexed": false,
          "name": "_address",
          "type": "address"
        }
      ],
      "name": "DeliveryLeadRemoved",
      "type": "event"
    },
    {
      "constant": true,
      "inputs": [
        {
          "name": "_address",
          "type": "address"
        }
      ],
      "name": "isDeliveryLead",
      "outputs": [
        {
          "name": "",
          "type": "bool"
        }
      ],
      "payable": false,
      "stateMutability": "view",
      "type": "function"
    },
    {
      "constant": false,
      "inputs": [
        {
          "name": "_address",
          "type": "address"
        }
      ],
      "name": "addDeliveryLead",
      "outputs": [],
      "payable": false,
      "stateMutability": "nonpayable",
      "type": "function"
    },
    {
      "constant": false,
      "inputs": [],
      "name": "renounceDeliveryLead",
      "outputs": [],
      "payable": false,
      "stateMutability": "nonpayable",
      "type": "function"
    }
  ],
  "bytecode": "0x608060405234801561001057600080fd5b506100293361002e640100000000026401000000009004565b610202565b61004f8160006100b5640100000000026103d0179091906401000000009004565b7f41d861f82213ee70d2e69a6a0e8d5aa73ef6f122d7765faadf7c8b2f1d12f65581604051808273ffffffffffffffffffffffffffffffffffffffff1673ffffffffffffffffffffffffffffffffffffffff16815260200191505060405180910390a150565b600073ffffffffffffffffffffffffffffffffffffffff168173ffffffffffffffffffffffffffffffffffffffff1614156100ef57600080fd5b6101088282610170640100000000026401000000009004565b1561011257600080fd5b60018260000160008373ffffffffffffffffffffffffffffffffffffffff1673ffffffffffffffffffffffffffffffffffffffff16815260200190815260200160002060006101000a81548160ff0219169083151502179055505050565b60008073ffffffffffffffffffffffffffffffffffffffff168273ffffffffffffffffffffffffffffffffffffffff1614156101ab57600080fd5b8260000160008373ffffffffffffffffffffffffffffffffffffffff1673ffffffffffffffffffffffffffffffffffffffff16815260200190815260200160002060009054906101000a900460ff16905092915050565b6104df806102116000396000f3fe608060405234801561001057600080fd5b506004361061005e576000357c010000000000000000000000000000000000000000000000000000000090048063b417d2da14610063578063eec854c9146100bf578063f0d82b85146100c9575b600080fd5b6100a56004803603602081101561007957600080fd5b81019080803573ffffffffffffffffffffffffffffffffffffffff16906020019092919050505061010d565b604051808215151515815260200191505060405180910390f35b6100c761012a565b005b61010b600480360360208110156100df57600080fd5b81019080803573ffffffffffffffffffffffffffffffffffffffff169060200190929190505050610135565b005b600061012382600061019f90919063ffffffff16565b9050919050565b61013333610231565b565b61013e3361010d565b610193576040517f08c379a000000000000000000000000000000000000000000000000000000000815260040180806020018281038252603781526020018061047d6037913960400191505060405180910390fd5b61019c816102ab565b50565b60008073ffffffffffffffffffffffffffffffffffffffff168273ffffffffffffffffffffffffffffffffffffffff1614156101da57600080fd5b8260000160008373ffffffffffffffffffffffffffffffffffffffff1673ffffffffffffffffffffffffffffffffffffffff16815260200190815260200160002060009054906101000a900460ff16905092915050565b61024581600061032590919063ffffffff16565b7f7a7aaec75983becaee21d56aa81ffbe1d3a027abd299000131dae79cff17d3f581604051808273ffffffffffffffffffffffffffffffffffffffff1673ffffffffffffffffffffffffffffffffffffffff16815260200191505060405180910390a150565b6102bf8160006103d090919063ffffffff16565b7f41d861f82213ee70d2e69a6a0e8d5aa73ef6f122d7765faadf7c8b2f1d12f65581604051808273ffffffffffffffffffffffffffffffffffffffff1673ffffffffffffffffffffffffffffffffffffffff16815260200191505060405180910390a150565b600073ffffffffffffffffffffffffffffffffffffffff168173ffffffffffffffffffffffffffffffffffffffff16141561035f57600080fd5b610369828261019f565b61037257600080fd5b60008260000160008373ffffffffffffffffffffffffffffffffffffffff1673ffffffffffffffffffffffffffffffffffffffff16815260200190815260200160002060006101000a81548160ff0219169083151502179055505050565b600073ffffffffffffffffffffffffffffffffffffffff168173ffffffffffffffffffffffffffffffffffffffff16141561040a57600080fd5b610414828261019f565b1561041e57600080fd5b60018260000160008373ffffffffffffffffffffffffffffffffffffffff1673ffffffffffffffffffffffffffffffffffffffff16815260200190815260200160002060006101000a81548160ff021916908315150217905550505056fe4f6e6c792044656c6976657279204c65616420697320616c6c6c6f77656420746f20706572666f726d20746869732066756e6374696f6ea165627a7a72305820a8759f9dc6a3ad925edd6804729c1d8c45a1198b029741228d983a79fccbc51c0029",
  "source": "pragma solidity ^0.5.0;\r\n\r\n// Import the library 'Roles'\r\nimport \"./Roles.sol\";\r\n\r\n// Define a contract 'DeliveryLeadRole' to manage this role - add, remove, check\r\ncontract DeliveryLeadRole {\r\n  using Roles for Roles.Role;\r\n\r\n  // Define 2 events, one for Adding, and other for Removing\r\n  event DeliveryLeadAdded (address _address);\r\n  event DeliveryLeadRemoved (address _address);\r\n  \r\n  // Define a struct 'DeliveryLead' by inheriting from 'Roles' library, struct Role\r\n  Roles.Role private deliveryLead ;\r\n\r\n  // In the constructor make the address that deploys this contract the 1st DeliveryLead\r\n  constructor() public {\r\n    _addDeliveryLead(msg.sender);\r\n    \r\n  }\r\n\r\n  // Define a modifier that checks to see if msg.sender has the appropriate role\r\n  modifier onlyDeliveryLead() {\r\n    require(isDeliveryLead(msg.sender),\"Only Delivery Lead is alllowed to perform this function\");\r\n    _;\r\n  }\r\n\r\n  // Define a function 'isDeliveryLead' to check this role\r\n  function isDeliveryLead(address _address) public view returns (bool) {\r\n    return deliveryLead.has(_address);\r\n  }\r\n\r\n  // Define a function 'addDeliveryLead' that adds this role\r\n  function addDeliveryLead(address _address) public onlyDeliveryLead {\r\n    _addDeliveryLead(_address);\r\n  }\r\n\r\n  // Define a function 'renounceDeliveryLead' to renounce this role\r\n  function renounceDeliveryLead() public {\r\n    _removeDeliveryLead(msg.sender);\r\n  }\r\n\r\n  // Define an internal function '_addDeliveryLead' to add this role, called by 'addDeliveryLead'\r\n  function _addDeliveryLead(address _address) internal {\r\n    deliveryLead.add(_address);\r\n    emit DeliveryLeadAdded(_address);\r\n  }\r\n\r\n  // Define an internal function '_removeDeliveryLead' to remove this role, called by 'removeDeliveryLead'\r\n  function _removeDeliveryLead(address _address) internal {\r\n    deliveryLead.remove(_address);\r\n    emit DeliveryLeadRemoved(_address);\r\n  }\r\n}",
  "sourcePath": "C:\\Users\\pdheeraj\\Documents\\udacity-blockchain\\Projects\\presales_process\\contracts\\accesscontrol\\DeliveryLeadRole.sol",
  "compiler": {
    "name": "solc",
    "version": "0.5.7+commit.6da8b019.Emscripten.clang"
  },
  "schemaVersion": "3.0.5",
  "updatedAt": "2019-04-17T14:17:35.418Z",
  "devdoc": {
    "methods": {}
  },
  "userdoc": {
    "methods": {}
  }
}