{
  "contractName": "SalesLeadRole",
  "abi": [
    {
      "inputs": [],
      "payable": false,
      "stateMutability": "nonpayable",
      "type": "constructor"
    },
    {
      "anonymous": false,
      "inputs": [
        {
          "indexed": false,
          "name": "_address",
          "type": "address"
        }
      ],
      "name": "SalesLeadAdded",
      "type": "event"
    },
    {
      "anonymous": false,
      "inputs": [
        {
          "indexed": false,
          "name": "_address",
          "type": "address"
        }
      ],
      "name": "SalesLeadRemoved",
      "type": "event"
    },
    {
      "constant": true,
      "inputs": [
        {
          "name": "_address",
          "type": "address"
        }
      ],
      "name": "isSalesLead",
      "outputs": [
        {
          "name": "",
          "type": "bool"
        }
      ],
      "payable": false,
      "stateMutability": "view",
      "type": "function"
    },
    {
      "constant": false,
      "inputs": [
        {
          "name": "_address",
          "type": "address"
        }
      ],
      "name": "addSalesLead",
      "outputs": [],
      "payable": false,
      "stateMutability": "nonpayable",
      "type": "function"
    },
    {
      "constant": false,
      "inputs": [],
      "name": "renounceSalesLead",
      "outputs": [],
      "payable": false,
      "stateMutability": "nonpayable",
      "type": "function"
    }
  ],
  "bytecode": "0x608060405234801561001057600080fd5b506100293361002e640100000000026401000000009004565b610202565b61004f8160006100b564010000000002610325179091906401000000009004565b7f583d7ca4108fd91fd82a58d7695ee1fa2d0022b0c47ae8964d9d37df8824fe1281604051808273ffffffffffffffffffffffffffffffffffffffff1673ffffffffffffffffffffffffffffffffffffffff16815260200191505060405180910390a150565b600073ffffffffffffffffffffffffffffffffffffffff168173ffffffffffffffffffffffffffffffffffffffff1614156100ef57600080fd5b6101088282610170640100000000026401000000009004565b1561011257600080fd5b60018260000160008373ffffffffffffffffffffffffffffffffffffffff1673ffffffffffffffffffffffffffffffffffffffff16815260200190815260200160002060006101000a81548160ff0219169083151502179055505050565b60008073ffffffffffffffffffffffffffffffffffffffff168273ffffffffffffffffffffffffffffffffffffffff1614156101ab57600080fd5b8260000160008373ffffffffffffffffffffffffffffffffffffffff1673ffffffffffffffffffffffffffffffffffffffff16815260200190815260200160002060009054906101000a900460ff16905092915050565b6104dc806102116000396000f3fe608060405234801561001057600080fd5b506004361061005e576000357c01000000000000000000000000000000000000000000000000000000009004806331d3d56c1461006357806332635cdb146100a757806355be042314610103575b600080fd5b6100a56004803603602081101561007957600080fd5b81019080803573ffffffffffffffffffffffffffffffffffffffff16906020019092919050505061010d565b005b6100e9600480360360208110156100bd57600080fd5b81019080803573ffffffffffffffffffffffffffffffffffffffff169060200190929190505050610177565b604051808215151515815260200191505060405180910390f35b61010b610194565b005b61011633610177565b61016b576040517f08c379a000000000000000000000000000000000000000000000000000000000815260040180806020018281038252603481526020018061047d6034913960400191505060405180910390fd5b6101748161019f565b50565b600061018d82600061021990919063ffffffff16565b9050919050565b61019d336102ab565b565b6101b381600061032590919063ffffffff16565b7f583d7ca4108fd91fd82a58d7695ee1fa2d0022b0c47ae8964d9d37df8824fe1281604051808273ffffffffffffffffffffffffffffffffffffffff1673ffffffffffffffffffffffffffffffffffffffff16815260200191505060405180910390a150565b60008073ffffffffffffffffffffffffffffffffffffffff168273ffffffffffffffffffffffffffffffffffffffff16141561025457600080fd5b8260000160008373ffffffffffffffffffffffffffffffffffffffff1673ffffffffffffffffffffffffffffffffffffffff16815260200190815260200160002060009054906101000a900460ff16905092915050565b6102bf8160006103d190919063ffffffff16565b7f032071e0f19d5276bc2b10646f03300e5060d865f443040409e73f16f3b4759481604051808273ffffffffffffffffffffffffffffffffffffffff1673ffffffffffffffffffffffffffffffffffffffff16815260200191505060405180910390a150565b600073ffffffffffffffffffffffffffffffffffffffff168173ffffffffffffffffffffffffffffffffffffffff16141561035f57600080fd5b6103698282610219565b1561037357600080fd5b60018260000160008373ffffffffffffffffffffffffffffffffffffffff1673ffffffffffffffffffffffffffffffffffffffff16815260200190815260200160002060006101000a81548160ff0219169083151502179055505050565b600073ffffffffffffffffffffffffffffffffffffffff168173ffffffffffffffffffffffffffffffffffffffff16141561040b57600080fd5b6104158282610219565b61041e57600080fd5b60008260000160008373ffffffffffffffffffffffffffffffffffffffff1673ffffffffffffffffffffffffffffffffffffffff16815260200190815260200160002060006101000a81548160ff021916908315150217905550505056fe4f6e6c792053616c6573204c65616420697320616c6c6c6f77656420746f20706572666f726d20746869732066756e6374696f6ea165627a7a723058205dcdaab64d41e3c9c41bbdc1d07335cc7b1b98a246e6e6bac9562968c491e5200029",
  "source": "pragma solidity ^0.5.0;\r\n\r\n// Import the library 'Roles'\r\nimport \"./Roles.sol\";\r\n\r\n// Define a contract 'SalesLeadRole' to manage this role - add, remove, check\r\ncontract SalesLeadRole {\r\n  using Roles for Roles.Role;\r\n\r\n  // Define 2 events, one for Adding, and other for Removing\r\n\r\n  //PD: Event: Added SalesLead\r\n  event SalesLeadAdded(address _address);\r\n\r\n  //PD: Event: Removed SalesLead\r\n  event SalesLeadRemoved(address _address);\r\n\r\n\r\n  // Define a struct 'SalesLead' by inheriting from 'Roles' library, struct Role\r\n  Roles.Role private salesLead ;  \r\n\r\n  // In the constructor make the address that deploys this contract the 1st SalesLead\r\n  constructor() public {\r\n    _addSalesLead(msg.sender);\r\n    \r\n  }\r\n\r\n  // Define a modifier that checks to see if msg.sender has the appropriate role\r\n  modifier onlySalesLead() {\r\n    require(isSalesLead(msg.sender),\"Only Sales Lead is alllowed to perform this function\");\r\n    _;\r\n  }\r\n\r\n  // Define a function 'isSalesLead' to check this role\r\n  function isSalesLead(address _address) public view returns (bool) {\r\n    return salesLead.has(_address);\r\n  }\r\n\r\n  // Define a function 'addSalesLead' that adds this role\r\n  function addSalesLead(address _address) public onlySalesLead {\r\n    _addSalesLead(_address);\r\n  }\r\n\r\n  // Define a function 'renounceSalesLead' to renounce this role\r\n  function renounceSalesLead() public {\r\n    _removeSalesLead(msg.sender);\r\n  }\r\n\r\n  // Define an internal function '_addSalesLead' to add this role, called by 'addSalesLead'\r\n  function _addSalesLead(address _address) internal {\r\n    salesLead.add(_address);\r\n    emit SalesLeadAdded(_address);\r\n  }\r\n\r\n  // Define an internal function '_removeSalesLead' to remove this role, called by 'removeSalesLead'\r\n  function _removeSalesLead(address _address) internal {\r\n    salesLead.remove(_address);\r\n    emit SalesLeadRemoved(_address);\r\n  }\r\n}",
  "sourcePath": "C:\\Users\\pdheeraj\\Documents\\udacity-blockchain\\Projects\\presales_process\\contracts\\accesscontrol\\SalesLeadRole.sol",
  "compiler": {
    "name": "solc",
    "version": "0.5.7+commit.6da8b019.Emscripten.clang"
  },
  "schemaVersion": "3.0.5",
  "updatedAt": "2019-04-21T16:55:39.101Z",
  "devdoc": {
    "methods": {}
  },
  "userdoc": {
    "methods": {}
  }
}