{
  "contractName": "SolutionArchitectRole",
  "abi": [
    {
      "inputs": [],
      "payable": false,
      "stateMutability": "nonpayable",
      "type": "constructor"
    },
    {
      "anonymous": false,
      "inputs": [
        {
          "indexed": false,
          "name": "_address",
          "type": "address"
        }
      ],
      "name": "SolutionArchitectAdded",
      "type": "event"
    },
    {
      "anonymous": false,
      "inputs": [
        {
          "indexed": false,
          "name": "_address",
          "type": "address"
        }
      ],
      "name": "SolutionArchitectRemoved",
      "type": "event"
    },
    {
      "constant": true,
      "inputs": [
        {
          "name": "_address",
          "type": "address"
        }
      ],
      "name": "isSolutionArchitect",
      "outputs": [
        {
          "name": "",
          "type": "bool"
        }
      ],
      "payable": false,
      "stateMutability": "view",
      "type": "function"
    },
    {
      "constant": false,
      "inputs": [
        {
          "name": "_address",
          "type": "address"
        }
      ],
      "name": "addSolutionArchitect",
      "outputs": [],
      "payable": false,
      "stateMutability": "nonpayable",
      "type": "function"
    },
    {
      "constant": false,
      "inputs": [],
      "name": "renounceSolutionArchitect",
      "outputs": [],
      "payable": false,
      "stateMutability": "nonpayable",
      "type": "function"
    }
  ],
  "bytecode": "0x608060405234801561001057600080fd5b506100293361002e640100000000026401000000009004565b610202565b61004f8160006100b5640100000000026103d0179091906401000000009004565b7f8ff3e958cff5842f159d2c37363ff0f949184cc18641eaea64cb2bd340e60aee81604051808273ffffffffffffffffffffffffffffffffffffffff1673ffffffffffffffffffffffffffffffffffffffff16815260200191505060405180910390a150565b600073ffffffffffffffffffffffffffffffffffffffff168173ffffffffffffffffffffffffffffffffffffffff1614156100ef57600080fd5b6101088282610170640100000000026401000000009004565b1561011257600080fd5b60018260000160008373ffffffffffffffffffffffffffffffffffffffff1673ffffffffffffffffffffffffffffffffffffffff16815260200190815260200160002060006101000a81548160ff0219169083151502179055505050565b60008073ffffffffffffffffffffffffffffffffffffffff168273ffffffffffffffffffffffffffffffffffffffff1614156101ab57600080fd5b8260000160008373ffffffffffffffffffffffffffffffffffffffff1673ffffffffffffffffffffffffffffffffffffffff16815260200190815260200160002060009054906101000a900460ff16905092915050565b6104e4806102116000396000f3fe608060405234801561001057600080fd5b506004361061005e576000357c0100000000000000000000000000000000000000000000000000000000900480631d74728414610063578063a5840ba01461006d578063bbd000e2146100c9575b600080fd5b61006b61010d565b005b6100af6004803603602081101561008357600080fd5b81019080803573ffffffffffffffffffffffffffffffffffffffff169060200190929190505050610118565b604051808215151515815260200191505060405180910390f35b61010b600480360360208110156100df57600080fd5b81019080803573ffffffffffffffffffffffffffffffffffffffff169060200190929190505050610135565b005b6101163361019f565b565b600061012e82600061021990919063ffffffff16565b9050919050565b61013e33610118565b610193576040517f08c379a000000000000000000000000000000000000000000000000000000000815260040180806020018281038252603c81526020018061047d603c913960400191505060405180910390fd5b61019c816102ab565b50565b6101b381600061032590919063ffffffff16565b7fc21c3791f9cd2c63c930399a7621bbab899a3f59529183027e61b6d363048f3e81604051808273ffffffffffffffffffffffffffffffffffffffff1673ffffffffffffffffffffffffffffffffffffffff16815260200191505060405180910390a150565b60008073ffffffffffffffffffffffffffffffffffffffff168273ffffffffffffffffffffffffffffffffffffffff16141561025457600080fd5b8260000160008373ffffffffffffffffffffffffffffffffffffffff1673ffffffffffffffffffffffffffffffffffffffff16815260200190815260200160002060009054906101000a900460ff16905092915050565b6102bf8160006103d090919063ffffffff16565b7f8ff3e958cff5842f159d2c37363ff0f949184cc18641eaea64cb2bd340e60aee81604051808273ffffffffffffffffffffffffffffffffffffffff1673ffffffffffffffffffffffffffffffffffffffff16815260200191505060405180910390a150565b600073ffffffffffffffffffffffffffffffffffffffff168173ffffffffffffffffffffffffffffffffffffffff16141561035f57600080fd5b6103698282610219565b61037257600080fd5b60008260000160008373ffffffffffffffffffffffffffffffffffffffff1673ffffffffffffffffffffffffffffffffffffffff16815260200190815260200160002060006101000a81548160ff0219169083151502179055505050565b600073ffffffffffffffffffffffffffffffffffffffff168173ffffffffffffffffffffffffffffffffffffffff16141561040a57600080fd5b6104148282610219565b1561041e57600080fd5b60018260000160008373ffffffffffffffffffffffffffffffffffffffff1673ffffffffffffffffffffffffffffffffffffffff16815260200190815260200160002060006101000a81548160ff021916908315150217905550505056fe4f6e6c7920536f6c7574696f6e2041726368697465637420697320616c6c6c6f77656420746f20706572666f726d20746869732066756e6374696f6ea165627a7a723058207159dffd0e595f3d648d79fad5a05a3250caee20b6848fe072924e8e8e5f7ef60029",
  "source": "pragma solidity ^0.5.0;\r\n\r\n// Import the library 'Roles'\r\nimport \"./Roles.sol\";\r\n\r\n// Define a contract 'SolutionArchitectRole' to manage this role - add, remove, check\r\ncontract SolutionArchitectRole {\r\n  using Roles for Roles.Role;\r\n\r\n  // Define 2 events, one for Adding, and other for Removing\r\n  event SolutionArchitectAdded(address _address);\r\n  event SolutionArchitectRemoved(address _address);\r\n\r\n  \r\n  // Define a struct 'SolutionArchitect' by inheriting from 'Roles' library, struct Role\r\n  Roles.Role private solutionArchitect ;\r\n\r\n  // In the constructor make the address that deploys this contract the 1st SolutionArchitect\r\n  constructor() public {\r\n    _addSolutionArchitect(msg.sender);\r\n  }\r\n\r\n  // Define a modifier that checks to see if msg.sender has the appropriate role\r\n  modifier onlySolutionArchitect() {\r\n    require(isSolutionArchitect(msg.sender),\"Only Solution Architect is alllowed to perform this function\");\r\n    _;\r\n  }\r\n\r\n  // Define a function 'isSolutionArchitect' to check this role\r\n  function isSolutionArchitect(address _address) public view returns (bool) {\r\n    return solutionArchitect.has(_address);\r\n  }\r\n\r\n  // Define a function 'addSolutionArchitect' that adds this role\r\n  function addSolutionArchitect(address _address) public onlySolutionArchitect {\r\n    _addSolutionArchitect(_address);\r\n  }\r\n\r\n  // Define a function 'renounceSolutionArchitect' to renounce this role\r\n  function renounceSolutionArchitect() public {\r\n    _removeSolutionArchitect(msg.sender);\r\n  }\r\n\r\n  // Define an internal function '_addSolutionArchitect' to add this role, called by 'addSolutionArchitect'\r\n  function _addSolutionArchitect(address _address) internal {\r\n    solutionArchitect.add(_address);\r\n    emit SolutionArchitectAdded(_address);\r\n  }\r\n\r\n  // Define an internal function '_removeSolutionArchitect' to remove this role, called by 'removeSolutionArchitect'\r\n  function _removeSolutionArchitect(address _address) internal {\r\n    solutionArchitect.remove(_address);\r\n    emit SolutionArchitectRemoved(_address);\r\n  }\r\n}",
  "sourcePath": "C:\\Users\\pdheeraj\\Documents\\udacity-blockchain\\Projects\\presales_process\\contracts\\accesscontrol\\SolutionArchitectRole.sol",
  "compiler": {
    "name": "solc",
    "version": "0.5.7+commit.6da8b019.Emscripten.clang"
  },
  "schemaVersion": "3.0.5",
  "updatedAt": "2019-04-21T16:55:39.102Z",
  "devdoc": {
    "methods": {}
  },
  "userdoc": {
    "methods": {}
  }
}